{
  "contractName": "Skull",
  "abi": [
    {
      "inputs": [],
      "stateMutability": "nonpayable",
      "type": "constructor"
    },
    {
      "anonymous": false,
      "inputs": [
        {
          "indexed": true,
          "internalType": "address",
          "name": "owner",
          "type": "address"
        },
        {
          "indexed": true,
          "internalType": "address",
          "name": "approved",
          "type": "address"
        },
        {
          "indexed": true,
          "internalType": "uint256",
          "name": "tokenId",
          "type": "uint256"
        }
      ],
      "name": "Approval",
      "type": "event"
    },
    {
      "anonymous": false,
      "inputs": [
        {
          "indexed": true,
          "internalType": "address",
          "name": "owner",
          "type": "address"
        },
        {
          "indexed": true,
          "internalType": "address",
          "name": "operator",
          "type": "address"
        },
        {
          "indexed": false,
          "internalType": "bool",
          "name": "approved",
          "type": "bool"
        }
      ],
      "name": "ApprovalForAll",
      "type": "event"
    },
    {
      "anonymous": false,
      "inputs": [
        {
          "indexed": true,
          "internalType": "address",
          "name": "_changer",
          "type": "address"
        },
        {
          "indexed": false,
          "internalType": "uint8",
          "name": "_r",
          "type": "uint8"
        },
        {
          "indexed": false,
          "internalType": "uint8",
          "name": "_g",
          "type": "uint8"
        },
        {
          "indexed": false,
          "internalType": "uint8",
          "name": "_b",
          "type": "uint8"
        }
      ],
      "name": "ColorChange",
      "type": "event"
    },
    {
      "anonymous": false,
      "inputs": [
        {
          "indexed": true,
          "internalType": "address",
          "name": "_changer",
          "type": "address"
        },
        {
          "indexed": false,
          "internalType": "string",
          "name": "_message",
          "type": "string"
        }
      ],
      "name": "MessageChange",
      "type": "event"
    },
    {
      "anonymous": false,
      "inputs": [
        {
          "indexed": true,
          "internalType": "address",
          "name": "from",
          "type": "address"
        },
        {
          "indexed": true,
          "internalType": "address",
          "name": "to",
          "type": "address"
        },
        {
          "indexed": true,
          "internalType": "uint256",
          "name": "tokenId",
          "type": "uint256"
        }
      ],
      "name": "Transfer",
      "type": "event"
    },
    {
      "inputs": [
        {
          "internalType": "address",
          "name": "to",
          "type": "address"
        },
        {
          "internalType": "uint256",
          "name": "tokenId",
          "type": "uint256"
        }
      ],
      "name": "approve",
      "outputs": [],
      "stateMutability": "nonpayable",
      "type": "function"
    },
    {
      "inputs": [
        {
          "internalType": "address",
          "name": "owner",
          "type": "address"
        }
      ],
      "name": "balanceOf",
      "outputs": [
        {
          "internalType": "uint256",
          "name": "",
          "type": "uint256"
        }
      ],
      "stateMutability": "view",
      "type": "function",
      "constant": true
    },
    {
      "inputs": [],
      "name": "baseURI",
      "outputs": [
        {
          "internalType": "string",
          "name": "",
          "type": "string"
        }
      ],
      "stateMutability": "view",
      "type": "function",
      "constant": true
    },
    {
      "inputs": [],
      "name": "color",
      "outputs": [
        {
          "internalType": "uint8",
          "name": "r",
          "type": "uint8"
        },
        {
          "internalType": "uint8",
          "name": "g",
          "type": "uint8"
        },
        {
          "internalType": "uint8",
          "name": "b",
          "type": "uint8"
        }
      ],
      "stateMutability": "view",
      "type": "function",
      "constant": true
    },
    {
      "inputs": [
        {
          "internalType": "uint256",
          "name": "tokenId",
          "type": "uint256"
        }
      ],
      "name": "getApproved",
      "outputs": [
        {
          "internalType": "address",
          "name": "",
          "type": "address"
        }
      ],
      "stateMutability": "view",
      "type": "function",
      "constant": true
    },
    {
      "inputs": [
        {
          "internalType": "address",
          "name": "owner",
          "type": "address"
        },
        {
          "internalType": "address",
          "name": "operator",
          "type": "address"
        }
      ],
      "name": "isApprovedForAll",
      "outputs": [
        {
          "internalType": "bool",
          "name": "",
          "type": "bool"
        }
      ],
      "stateMutability": "view",
      "type": "function",
      "constant": true
    },
    {
      "inputs": [],
      "name": "message",
      "outputs": [
        {
          "internalType": "string",
          "name": "",
          "type": "string"
        }
      ],
      "stateMutability": "view",
      "type": "function",
      "constant": true
    },
    {
      "inputs": [],
      "name": "name",
      "outputs": [
        {
          "internalType": "string",
          "name": "",
          "type": "string"
        }
      ],
      "stateMutability": "view",
      "type": "function",
      "constant": true
    },
    {
      "inputs": [],
      "name": "owner",
      "outputs": [
        {
          "internalType": "address",
          "name": "",
          "type": "address"
        }
      ],
      "stateMutability": "view",
      "type": "function",
      "constant": true
    },
    {
      "inputs": [
        {
          "internalType": "uint256",
          "name": "tokenId",
          "type": "uint256"
        }
      ],
      "name": "ownerOf",
      "outputs": [
        {
          "internalType": "address",
          "name": "",
          "type": "address"
        }
      ],
      "stateMutability": "view",
      "type": "function",
      "constant": true
    },
    {
      "inputs": [
        {
          "internalType": "address",
          "name": "from",
          "type": "address"
        },
        {
          "internalType": "address",
          "name": "to",
          "type": "address"
        },
        {
          "internalType": "uint256",
          "name": "tokenId",
          "type": "uint256"
        }
      ],
      "name": "safeTransferFrom",
      "outputs": [],
      "stateMutability": "nonpayable",
      "type": "function"
    },
    {
      "inputs": [
        {
          "internalType": "address",
          "name": "from",
          "type": "address"
        },
        {
          "internalType": "address",
          "name": "to",
          "type": "address"
        },
        {
          "internalType": "uint256",
          "name": "tokenId",
          "type": "uint256"
        },
        {
          "internalType": "bytes",
          "name": "_data",
          "type": "bytes"
        }
      ],
      "name": "safeTransferFrom",
      "outputs": [],
      "stateMutability": "nonpayable",
      "type": "function"
    },
    {
      "inputs": [
        {
          "internalType": "address",
          "name": "operator",
          "type": "address"
        },
        {
          "internalType": "bool",
          "name": "approved",
          "type": "bool"
        }
      ],
      "name": "setApprovalForAll",
      "outputs": [],
      "stateMutability": "nonpayable",
      "type": "function"
    },
    {
      "inputs": [
        {
          "internalType": "bytes4",
          "name": "interfaceId",
          "type": "bytes4"
        }
      ],
      "name": "supportsInterface",
      "outputs": [
        {
          "internalType": "bool",
          "name": "",
          "type": "bool"
        }
      ],
      "stateMutability": "view",
      "type": "function",
      "constant": true
    },
    {
      "inputs": [],
      "name": "symbol",
      "outputs": [
        {
          "internalType": "string",
          "name": "",
          "type": "string"
        }
      ],
      "stateMutability": "view",
      "type": "function",
      "constant": true
    },
    {
      "inputs": [
        {
          "internalType": "uint256",
          "name": "index",
          "type": "uint256"
        }
      ],
      "name": "tokenByIndex",
      "outputs": [
        {
          "internalType": "uint256",
          "name": "",
          "type": "uint256"
        }
      ],
      "stateMutability": "view",
      "type": "function",
      "constant": true
    },
    {
      "inputs": [
        {
          "internalType": "address",
          "name": "owner",
          "type": "address"
        },
        {
          "internalType": "uint256",
          "name": "index",
          "type": "uint256"
        }
      ],
      "name": "tokenOfOwnerByIndex",
      "outputs": [
        {
          "internalType": "uint256",
          "name": "",
          "type": "uint256"
        }
      ],
      "stateMutability": "view",
      "type": "function",
      "constant": true
    },
    {
      "inputs": [
        {
          "internalType": "uint256",
          "name": "tokenId",
          "type": "uint256"
        }
      ],
      "name": "tokenURI",
      "outputs": [
        {
          "internalType": "string",
          "name": "",
          "type": "string"
        }
      ],
      "stateMutability": "view",
      "type": "function",
      "constant": true
    },
    {
      "inputs": [],
      "name": "totalSupply",
      "outputs": [
        {
          "internalType": "uint256",
          "name": "",
          "type": "uint256"
        }
      ],
      "stateMutability": "view",
      "type": "function",
      "constant": true
    },
    {
      "inputs": [
        {
          "internalType": "address",
          "name": "from",
          "type": "address"
        },
        {
          "internalType": "address",
          "name": "to",
          "type": "address"
        },
        {
          "internalType": "uint256",
          "name": "tokenId",
          "type": "uint256"
        }
      ],
      "name": "transferFrom",
      "outputs": [],
      "stateMutability": "nonpayable",
      "type": "function"
    },
    {
      "inputs": [
        {
          "internalType": "uint8",
          "name": "_r",
          "type": "uint8"
        },
        {
          "internalType": "uint8",
          "name": "_g",
          "type": "uint8"
        },
        {
          "internalType": "uint8",
          "name": "_b",
          "type": "uint8"
        },
        {
          "internalType": "address",
          "name": "skullChanger",
          "type": "address"
        },
        {
          "internalType": "string",
          "name": "tokenURI",
          "type": "string"
        }
      ],
      "name": "setColor",
      "outputs": [],
      "stateMutability": "nonpayable",
      "type": "function"
    },
    {
      "inputs": [
        {
          "internalType": "string",
          "name": "_message",
          "type": "string"
        }
      ],
      "name": "setMessage",
      "outputs": [],
      "stateMutability": "nonpayable",
      "type": "function"
    }
  ],
  "bytecode": "0x60806040523480156200001157600080fd5b506040518060400160405280600a81526020017f536b756c6c546f6b656e000000000000000000000000000000000000000000008152506040518060400160405280600381526020017f534b4c0000000000000000000000000000000000000000000000000000000000815250620000966301ffc9a760e01b6200023560201b60201c565b8160069080519060200190620000ae9291906200033e565b508060079080519060200190620000c79291906200033e565b50620000e06380ac58cd60e01b6200023560201b60201c565b620000f8635b5e139f60e01b6200023560201b60201c565b6200011063780e9d6360e01b6200023560201b60201c565b505033600b60006101000a81548173ffffffffffffffffffffffffffffffffffffffff021916908373ffffffffffffffffffffffffffffffffffffffff160217905550604051806060016040528060ff80168152602001600060ff168152602001600060ff16815250600c60008201518160000160006101000a81548160ff021916908360ff16021790555060208201518160000160016101000a81548160ff021916908360ff16021790555060408201518160000160026101000a81548160ff021916908360ff1602179055509050506040518060400160405280600581526020017f68656e6c6f000000000000000000000000000000000000000000000000000000815250600d90805190602001906200022e9291906200033e565b50620003ed565b63ffffffff60e01b817bffffffffffffffffffffffffffffffffffffffffffffffffffffffff19161415620002d2576040517f08c379a000000000000000000000000000000000000000000000000000000000815260040180806020018281038252601c8152602001807f4552433136353a20696e76616c696420696e746572666163652069640000000081525060200191505060405180910390fd5b6001600080837bffffffffffffffffffffffffffffffffffffffffffffffffffffffff19167bffffffffffffffffffffffffffffffffffffffffffffffffffffffff1916815260200190815260200160002060006101000a81548160ff02191690831515021790555050565b828054600181600116156101000203166002900490600052602060002090601f016020900481019282601f106200038157805160ff1916838001178555620003b2565b82800160010185558215620003b2579182015b82811115620003b157825182559160200191906001019062000394565b5b509050620003c19190620003c5565b5090565b620003ea91905b80821115620003e6576000816000905550600101620003cc565b5090565b90565b6130d280620003fd6000396000f3fe608060405234801561001057600080fd5b50600436106101425760003560e01c80636352211e116100b8578063a22cb4651161007c578063a22cb4651461085c578063b88d4fde146108ac578063c87b56dd146109b1578063cf08fed514610a58578063e21f37ce14610a96578063e985e9c514610b1957610142565b80636352211e146106465780636c0360eb146106b457806370a08231146107375780638da5cb5b1461078f57806395d89b41146107d957610142565b806323b872dd1161010a57806323b872dd146103095780632f745c59146103775780633367594f146103d9578063368b8772146104db57806342842e0e146105965780634f6ccce71461060457610142565b806301ffc9a71461014757806306fdde03146101ac578063081812fc1461022f578063095ea7b31461029d57806318160ddd146102eb575b600080fd5b6101926004803603602081101561015d57600080fd5b8101908080357bffffffffffffffffffffffffffffffffffffffffffffffffffffffff19169060200190929190505050610b95565b604051808215151515815260200191505060405180910390f35b6101b4610bfc565b6040518080602001828103825283818151815260200191508051906020019080838360005b838110156101f45780820151818401526020810190506101d9565b50505050905090810190601f1680156102215780820380516001836020036101000a031916815260200191505b509250505060405180910390f35b61025b6004803603602081101561024557600080fd5b8101908080359060200190929190505050610c9e565b604051808273ffffffffffffffffffffffffffffffffffffffff1673ffffffffffffffffffffffffffffffffffffffff16815260200191505060405180910390f35b6102e9600480360360408110156102b357600080fd5b81019080803573ffffffffffffffffffffffffffffffffffffffff16906020019092919080359060200190929190505050610d39565b005b6102f3610e7d565b6040518082815260200191505060405180910390f35b6103756004803603606081101561031f57600080fd5b81019080803573ffffffffffffffffffffffffffffffffffffffff169060200190929190803573ffffffffffffffffffffffffffffffffffffffff16906020019092919080359060200190929190505050610e8e565b005b6103c36004803603604081101561038d57600080fd5b81019080803573ffffffffffffffffffffffffffffffffffffffff16906020019092919080359060200190929190505050610f04565b6040518082815260200191505060405180910390f35b6104d9600480360360a08110156103ef57600080fd5b81019080803560ff169060200190929190803560ff169060200190929190803560ff169060200190929190803573ffffffffffffffffffffffffffffffffffffffff1690602001909291908035906020019064010000000081111561045357600080fd5b82018360208201111561046557600080fd5b8035906020019184600183028401116401000000008311171561048757600080fd5b91908080601f016020809104026020016040519081016040528093929190818152602001838380828437600081840152601f19601f820116905080830192505050505050509192919290505050610f5f565b005b610594600480360360208110156104f157600080fd5b810190808035906020019064010000000081111561050e57600080fd5b82018360208201111561052057600080fd5b8035906020019184600183028401116401000000008311171561054257600080fd5b91908080601f016020809104026020016040519081016040528093929190818152602001838380828437600081840152601f19601f82011690508083019250505050505050919291929050505061109b565b005b610602600480360360608110156105ac57600080fd5b81019080803573ffffffffffffffffffffffffffffffffffffffff169060200190929190803573ffffffffffffffffffffffffffffffffffffffff16906020019092919080359060200190929190505050611168565b005b6106306004803603602081101561061a57600080fd5b8101908080359060200190929190505050611188565b6040518082815260200191505060405180910390f35b6106726004803603602081101561065c57600080fd5b81019080803590602001909291905050506111ab565b604051808273ffffffffffffffffffffffffffffffffffffffff1673ffffffffffffffffffffffffffffffffffffffff16815260200191505060405180910390f35b6106bc6111e2565b6040518080602001828103825283818151815260200191508051906020019080838360005b838110156106fc5780820151818401526020810190506106e1565b50505050905090810190601f1680156107295780820380516001836020036101000a031916815260200191505b509250505060405180910390f35b6107796004803603602081101561074d57600080fd5b81019080803573ffffffffffffffffffffffffffffffffffffffff169060200190929190505050611284565b6040518082815260200191505060405180910390f35b610797611359565b604051808273ffffffffffffffffffffffffffffffffffffffff1673ffffffffffffffffffffffffffffffffffffffff16815260200191505060405180910390f35b6107e161137f565b6040518080602001828103825283818151815260200191508051906020019080838360005b83811015610821578082015181840152602081019050610806565b50505050905090810190601f16801561084e5780820380516001836020036101000a031916815260200191505b509250505060405180910390f35b6108aa6004803603604081101561087257600080fd5b81019080803573ffffffffffffffffffffffffffffffffffffffff169060200190929190803515159060200190929190505050611421565b005b6109af600480360360808110156108c257600080fd5b81019080803573ffffffffffffffffffffffffffffffffffffffff169060200190929190803573ffffffffffffffffffffffffffffffffffffffff169060200190929190803590602001909291908035906020019064010000000081111561092957600080fd5b82018360208201111561093b57600080fd5b8035906020019184600183028401116401000000008311171561095d57600080fd5b91908080601f016020809104026020016040519081016040528093929190818152602001838380828437600081840152601f19601f8201169050808301925050505050505091929192905050506115d9565b005b6109dd600480360360208110156109c757600080fd5b8101908080359060200190929190505050611651565b6040518080602001828103825283818151815260200191508051906020019080838360005b83811015610a1d578082015181840152602081019050610a02565b50505050905090810190601f168015610a4a5780820380516001836020036101000a031916815260200191505b509250505060405180910390f35b610a6061193a565b604051808460ff1660ff1681526020018360ff1660ff1681526020018260ff1660ff168152602001935050505060405180910390f35b610a9e611979565b6040518080602001828103825283818151815260200191508051906020019080838360005b83811015610ade578082015181840152602081019050610ac3565b50505050905090810190601f168015610b0b5780820380516001836020036101000a031916815260200191505b509250505060405180910390f35b610b7b60048036036040811015610b2f57600080fd5b81019080803573ffffffffffffffffffffffffffffffffffffffff169060200190929190803573ffffffffffffffffffffffffffffffffffffffff169060200190929190505050611a17565b604051808215151515815260200191505060405180910390f35b6000806000837bffffffffffffffffffffffffffffffffffffffffffffffffffffffff19167bffffffffffffffffffffffffffffffffffffffffffffffffffffffff1916815260200190815260200160002060009054906101000a900460ff169050919050565b606060068054600181600116156101000203166002900480601f016020809104026020016040519081016040528092919081815260200182805460018160011615610100020316600290048015610c945780601f10610c6957610100808354040283529160200191610c94565b820191906000526020600020905b815481529060010190602001808311610c7757829003601f168201915b5050505050905090565b6000610ca982611aab565b610cfe576040517f08c379a000000000000000000000000000000000000000000000000000000000815260040180806020018281038252602c815260200180612f9b602c913960400191505060405180910390fd5b6004600083815260200190815260200160002060009054906101000a900473ffffffffffffffffffffffffffffffffffffffff169050919050565b6000610d44826111ab565b90508073ffffffffffffffffffffffffffffffffffffffff168373ffffffffffffffffffffffffffffffffffffffff161415610dcb576040517f08c379a000000000000000000000000000000000000000000000000000000000815260040180806020018281038252602181526020018061304b6021913960400191505060405180910390fd5b8073ffffffffffffffffffffffffffffffffffffffff16610dea611ac8565b73ffffffffffffffffffffffffffffffffffffffff161480610e195750610e1881610e13611ac8565b611a17565b5b610e6e576040517f08c379a0000000000000000000000000000000000000000000000000000000008152600401808060200182810382526038815260200180612eee6038913960400191505060405180910390fd5b610e788383611ad0565b505050565b6000610e896002611b89565b905090565b610e9f610e99611ac8565b82611b9e565b610ef4576040517f08c379a000000000000000000000000000000000000000000000000000000000815260040180806020018281038252603181526020018061306c6031913960400191505060405180910390fd5b610eff838383611c92565b505050565b6000610f5782600160008673ffffffffffffffffffffffffffffffffffffffff1673ffffffffffffffffffffffffffffffffffffffff168152602001908152602001600020611ed590919063ffffffff16565b905092915050565b610f67612d7a565b60405180606001604052808760ff1681526020018660ff1681526020018560ff168152509050610f97600a611eef565b6000610fa3600a611f05565b9050610faf8482611f13565b610fb98184612107565b81600c60008201518160000160006101000a81548160ff021916908360ff16021790555060208201518160000160016101000a81548160ff021916908360ff16021790555060408201518160000160026101000a81548160ff021916908360ff1602179055509050503373ffffffffffffffffffffffffffffffffffffffff167fa798a24729a8229dc2ed06735c1c18fcae1d5c580855628b9dfd7f3c291c8b25888888604051808460ff1660ff1681526020018360ff1660ff1681526020018260ff1660ff168152602001935050505060405180910390a250505050505050565b80600d90805190602001906110b1929190612da4565b503373ffffffffffffffffffffffffffffffffffffffff167f659307a903e45967d2d2d7b7b87bd108bace2c83d3017eba4ce1df9ea2ae1872826040518080602001828103825283818151815260200191508051906020019080838360005b8381101561112b578082015181840152602081019050611110565b50505050905090810190601f1680156111585780820380516001836020036101000a031916815260200191505b509250505060405180910390a250565b611183838383604051806020016040528060008152506115d9565b505050565b60008061119f83600261219190919063ffffffff16565b50905080915050919050565b60006111db82604051806060016040528060298152602001612f506029913960026121c09092919063ffffffff16565b9050919050565b606060098054600181600116156101000203166002900480601f01602080910402602001604051908101604052809291908181526020018280546001816001161561010002031660029004801561127a5780601f1061124f5761010080835404028352916020019161127a565b820191906000526020600020905b81548152906001019060200180831161125d57829003601f168201915b5050505050905090565b60008073ffffffffffffffffffffffffffffffffffffffff168273ffffffffffffffffffffffffffffffffffffffff16141561130b576040517f08c379a000000000000000000000000000000000000000000000000000000000815260040180806020018281038252602a815260200180612f26602a913960400191505060405180910390fd5b611352600160008473ffffffffffffffffffffffffffffffffffffffff1673ffffffffffffffffffffffffffffffffffffffff1681526020019081526020016000206121df565b9050919050565b600b60009054906101000a900473ffffffffffffffffffffffffffffffffffffffff1681565b606060078054600181600116156101000203166002900480601f0160208091040260200160405190810160405280929190818152602001828054600181600116156101000203166002900480156114175780601f106113ec57610100808354040283529160200191611417565b820191906000526020600020905b8154815290600101906020018083116113fa57829003601f168201915b5050505050905090565b611429611ac8565b73ffffffffffffffffffffffffffffffffffffffff168273ffffffffffffffffffffffffffffffffffffffff1614156114ca576040517f08c379a00000000000000000000000000000000000000000000000000000000081526004018080602001828103825260198152602001807f4552433732313a20617070726f766520746f2063616c6c65720000000000000081525060200191505060405180910390fd5b80600560006114d7611ac8565b73ffffffffffffffffffffffffffffffffffffffff1673ffffffffffffffffffffffffffffffffffffffff16815260200190815260200160002060008473ffffffffffffffffffffffffffffffffffffffff1673ffffffffffffffffffffffffffffffffffffffff16815260200190815260200160002060006101000a81548160ff0219169083151502179055508173ffffffffffffffffffffffffffffffffffffffff16611584611ac8565b73ffffffffffffffffffffffffffffffffffffffff167f17307eab39ab6107e8899845ad3d59bd9653f200f220920489ca2b5937696c3183604051808215151515815260200191505060405180910390a35050565b6115ea6115e4611ac8565b83611b9e565b61163f576040517f08c379a000000000000000000000000000000000000000000000000000000000815260040180806020018281038252603181526020018061306c6031913960400191505060405180910390fd5b61164b848484846121f4565b50505050565b606061165c82611aab565b6116b1576040517f08c379a000000000000000000000000000000000000000000000000000000000815260040180806020018281038252602f81526020018061301c602f913960400191505060405180910390fd5b6060600860008481526020019081526020016000208054600181600116156101000203166002900480601f01602080910402602001604051908101604052809291908181526020018280546001816001161561010002031660029004801561175a5780601f1061172f5761010080835404028352916020019161175a565b820191906000526020600020905b81548152906001019060200180831161173d57829003601f168201915b505050505090506000600980546001816001161561010002031660029004905014156117895780915050611935565b6000815111156118625760098160405160200180838054600181600116156101000203166002900480156117f45780601f106117d25761010080835404028352918201916117f4565b820191906000526020600020905b8154815290600101906020018083116117e0575b505082805190602001908083835b602083106118255780518252602082019150602081019050602083039250611802565b6001836020036101000a03801982511681845116808217855250505050505090500192505050604051602081830303815290604052915050611935565b600961186d84612266565b60405160200180838054600181600116156101000203166002900480156118cb5780601f106118a95761010080835404028352918201916118cb565b820191906000526020600020905b8154815290600101906020018083116118b7575b505082805190602001908083835b602083106118fc57805182526020820191506020810190506020830392506118d9565b6001836020036101000a038019825116818451168082178552505050505050905001925050506040516020818303038152906040529150505b919050565b600c8060000160009054906101000a900460ff16908060000160019054906101000a900460ff16908060000160029054906101000a900460ff16905083565b600d8054600181600116156101000203166002900480601f016020809104026020016040519081016040528092919081815260200182805460018160011615610100020316600290048015611a0f5780601f106119e457610100808354040283529160200191611a0f565b820191906000526020600020905b8154815290600101906020018083116119f257829003601f168201915b505050505081565b6000600560008473ffffffffffffffffffffffffffffffffffffffff1673ffffffffffffffffffffffffffffffffffffffff16815260200190815260200160002060008373ffffffffffffffffffffffffffffffffffffffff1673ffffffffffffffffffffffffffffffffffffffff16815260200190815260200160002060009054906101000a900460ff16905092915050565b6000611ac182600261239690919063ffffffff16565b9050919050565b600033905090565b816004600083815260200190815260200160002060006101000a81548173ffffffffffffffffffffffffffffffffffffffff021916908373ffffffffffffffffffffffffffffffffffffffff160217905550808273ffffffffffffffffffffffffffffffffffffffff16611b43836111ab565b73ffffffffffffffffffffffffffffffffffffffff167f8c5be1e5ebec7d5bd14f71427d1e84f3dd0314c0f7b2291e5b200ac8c7c3b92560405160405180910390a45050565b6000611b97826000016123b0565b9050919050565b6000611ba982611aab565b611bfe576040517f08c379a000000000000000000000000000000000000000000000000000000000815260040180806020018281038252602c815260200180612ec2602c913960400191505060405180910390fd5b6000611c09836111ab565b90508073ffffffffffffffffffffffffffffffffffffffff168473ffffffffffffffffffffffffffffffffffffffff161480611c7857508373ffffffffffffffffffffffffffffffffffffffff16611c6084610c9e565b73ffffffffffffffffffffffffffffffffffffffff16145b80611c895750611c888185611a17565b5b91505092915050565b8273ffffffffffffffffffffffffffffffffffffffff16611cb2826111ab565b73ffffffffffffffffffffffffffffffffffffffff1614611d1e576040517f08c379a0000000000000000000000000000000000000000000000000000000008152600401808060200182810382526029815260200180612ff36029913960400191505060405180910390fd5b600073ffffffffffffffffffffffffffffffffffffffff168273ffffffffffffffffffffffffffffffffffffffff161415611da4576040517f08c379a0000000000000000000000000000000000000000000000000000000008152600401808060200182810382526024815260200180612e9e6024913960400191505060405180910390fd5b611daf8383836123c1565b611dba600082611ad0565b611e0b81600160008673ffffffffffffffffffffffffffffffffffffffff1673ffffffffffffffffffffffffffffffffffffffff1681526020019081526020016000206123c690919063ffffffff16565b50611e5d81600160008573ffffffffffffffffffffffffffffffffffffffff1673ffffffffffffffffffffffffffffffffffffffff1681526020019081526020016000206123e090919063ffffffff16565b50611e74818360026123fa9092919063ffffffff16565b50808273ffffffffffffffffffffffffffffffffffffffff168473ffffffffffffffffffffffffffffffffffffffff167fddf252ad1be2c89b69c2b068fc378daa952ba7f163c4a11628f55a4df523b3ef60405160405180910390a4505050565b6000611ee4836000018361242f565b60001c905092915050565b6001816000016000828254019250508190555050565b600081600001549050919050565b600073ffffffffffffffffffffffffffffffffffffffff168273ffffffffffffffffffffffffffffffffffffffff161415611fb6576040517f08c379a00000000000000000000000000000000000000000000000000000000081526004018080602001828103825260208152602001807f4552433732313a206d696e7420746f20746865207a65726f206164647265737381525060200191505060405180910390fd5b611fbf81611aab565b15612032576040517f08c379a000000000000000000000000000000000000000000000000000000000815260040180806020018281038252601c8152602001807f4552433732313a20746f6b656e20616c7265616479206d696e7465640000000081525060200191505060405180910390fd5b61203e600083836123c1565b61208f81600160008573ffffffffffffffffffffffffffffffffffffffff1673ffffffffffffffffffffffffffffffffffffffff1681526020019081526020016000206123e090919063ffffffff16565b506120a6818360026123fa9092919063ffffffff16565b50808273ffffffffffffffffffffffffffffffffffffffff16600073ffffffffffffffffffffffffffffffffffffffff167fddf252ad1be2c89b69c2b068fc378daa952ba7f163c4a11628f55a4df523b3ef60405160405180910390a45050565b61211082611aab565b612165576040517f08c379a000000000000000000000000000000000000000000000000000000000815260040180806020018281038252602c815260200180612fc7602c913960400191505060405180910390fd5b8060086000848152602001908152602001600020908051906020019061218c929190612da4565b505050565b6000806000806121a486600001866124b2565b915091508160001c8160001c8090509350935050509250929050565b60006121d3846000018460001b8461254b565b60001c90509392505050565b60006121ed82600001612641565b9050919050565b6121ff848484611c92565b61220b84848484612652565b612260576040517f08c379a0000000000000000000000000000000000000000000000000000000008152600401808060200182810382526032815260200180612e6c6032913960400191505060405180910390fd5b50505050565b606060008214156122ae576040518060400160405280600181526020017f30000000000000000000000000000000000000000000000000000000000000008152509050612391565b600082905060005b600082146122d8578080600101915050600a82816122d057fe5b0491506122b6565b6060816040519080825280601f01601f19166020018201604052801561230d5781602001600182028038833980820191505090505b50905060006001830390508593505b6000841461238957600a848161232e57fe5b0660300160f81b8282806001900393508151811061234857fe5b60200101907effffffffffffffffffffffffffffffffffffffffffffffffffffffffffffff1916908160001a905350600a848161238157fe5b04935061231c565b819450505050505b919050565b60006123a8836000018360001b612897565b905092915050565b600081600001805490509050919050565b505050565b60006123d8836000018360001b6128ba565b905092915050565b60006123f2836000018360001b6129a2565b905092915050565b6000612426846000018460001b8473ffffffffffffffffffffffffffffffffffffffff1660001b612a12565b90509392505050565b600081836000018054905011612490576040517f08c379a0000000000000000000000000000000000000000000000000000000008152600401808060200182810382526022815260200180612e4a6022913960400191505060405180910390fd5b82600001828154811061249f57fe5b9060005260206000200154905092915050565b60008082846000018054905011612514576040517f08c379a0000000000000000000000000000000000000000000000000000000008152600401808060200182810382526022815260200180612f796022913960400191505060405180910390fd5b600084600001848154811061252557fe5b906000526020600020906002020190508060000154816001015492509250509250929050565b60008084600101600085815260200190815260200160002054905060008114158390612612576040517f08c379a00000000000000000000000000000000000000000000000000000000081526004018080602001828103825283818151815260200191508051906020019080838360005b838110156125d75780820151818401526020810190506125bc565b50505050905090810190601f1680156126045780820380516001836020036101000a031916815260200191505b509250505060405180910390fd5b5084600001600182038154811061262557fe5b9060005260206000209060020201600101549150509392505050565b600081600001805490509050919050565b60006126738473ffffffffffffffffffffffffffffffffffffffff16612aee565b612680576001905061288f565b606061281663150b7a0260e01b612695611ac8565b888787604051602401808573ffffffffffffffffffffffffffffffffffffffff1673ffffffffffffffffffffffffffffffffffffffff1681526020018473ffffffffffffffffffffffffffffffffffffffff1673ffffffffffffffffffffffffffffffffffffffff16815260200183815260200180602001828103825283818151815260200191508051906020019080838360005b8381101561274557808201518184015260208101905061272a565b50505050905090810190601f1680156127725780820380516001836020036101000a031916815260200191505b5095505050505050604051602081830303815290604052907bffffffffffffffffffffffffffffffffffffffffffffffffffffffff19166020820180517bffffffffffffffffffffffffffffffffffffffffffffffffffffffff8381831617835250505050604051806060016040528060328152602001612e6c603291398773ffffffffffffffffffffffffffffffffffffffff16612b399092919063ffffffff16565b9050600081806020019051602081101561282f57600080fd5b8101908080519060200190929190505050905063150b7a0260e01b7bffffffffffffffffffffffffffffffffffffffffffffffffffffffff1916817bffffffffffffffffffffffffffffffffffffffffffffffffffffffff191614925050505b949350505050565b600080836001016000848152602001908152602001600020541415905092915050565b60008083600101600084815260200190815260200160002054905060008114612996576000600182039050600060018660000180549050039050600086600001828154811061290557fe5b906000526020600020015490508087600001848154811061292257fe5b906000526020600020018190555060018301876001016000838152602001908152602001600020819055508660000180548061295a57fe5b6001900381819060005260206000200160009055905586600101600087815260200190815260200160002060009055600194505050505061299c565b60009150505b92915050565b60006129ae8383612b51565b612a07578260000182908060018154018082558091505060019003906000526020600020016000909190919091505582600001805490508360010160008481526020019081526020016000208190555060019050612a0c565b600090505b92915050565b6000808460010160008581526020019081526020016000205490506000811415612ab957846000016040518060400160405280868152602001858152509080600181540180825580915050600190039060005260206000209060020201600090919091909150600082015181600001556020820151816001015550508460000180549050856001016000868152602001908152602001600020819055506001915050612ae7565b82856000016001830381548110612acc57fe5b90600052602060002090600202016001018190555060009150505b9392505050565b60008060007fc5d2460186f7233c927e7db2dcc703c0e500b653ca82273b7bfad8045d85a47060001b9050833f9150808214158015612b3057506000801b8214155b92505050919050565b6060612b488484600085612b74565b90509392505050565b600080836001016000848152602001908152602001600020541415905092915050565b6060612b7f85612aee565b612bf1576040517f08c379a000000000000000000000000000000000000000000000000000000000815260040180806020018281038252601d8152602001807f416464726573733a2063616c6c20746f206e6f6e2d636f6e747261637400000081525060200191505060405180910390fd5b600060608673ffffffffffffffffffffffffffffffffffffffff1685876040518082805190602001908083835b60208310612c415780518252602082019150602081019050602083039250612c1e565b6001836020036101000a03801982511681845116808217855250505050505090500191505060006040518083038185875af1925050503d8060008114612ca3576040519150601f19603f3d011682016040523d82523d6000602084013e612ca8565b606091505b50915091508115612cbd578092505050612d72565b600081511115612cd05780518082602001fd5b836040517f08c379a00000000000000000000000000000000000000000000000000000000081526004018080602001828103825283818151815260200191508051906020019080838360005b83811015612d37578082015181840152602081019050612d1c565b50505050905090810190601f168015612d645780820380516001836020036101000a031916815260200191505b509250505060405180910390fd5b949350505050565b6040518060600160405280600060ff168152602001600060ff168152602001600060ff1681525090565b828054600181600116156101000203166002900490600052602060002090601f016020900481019282601f10612de557805160ff1916838001178555612e13565b82800160010185558215612e13579182015b82811115612e12578251825591602001919060010190612df7565b5b509050612e209190612e24565b5090565b612e4691905b80821115612e42576000816000905550600101612e2a565b5090565b9056fe456e756d657261626c655365743a20696e646578206f7574206f6620626f756e64734552433732313a207472616e7366657220746f206e6f6e20455243373231526563656976657220696d706c656d656e7465724552433732313a207472616e7366657220746f20746865207a65726f20616464726573734552433732313a206f70657261746f7220717565727920666f72206e6f6e6578697374656e7420746f6b656e4552433732313a20617070726f76652063616c6c6572206973206e6f74206f776e6572206e6f7220617070726f76656420666f7220616c6c4552433732313a2062616c616e636520717565727920666f7220746865207a65726f20616464726573734552433732313a206f776e657220717565727920666f72206e6f6e6578697374656e7420746f6b656e456e756d657261626c654d61703a20696e646578206f7574206f6620626f756e64734552433732313a20617070726f76656420717565727920666f72206e6f6e6578697374656e7420746f6b656e4552433732314d657461646174613a2055524920736574206f66206e6f6e6578697374656e7420746f6b656e4552433732313a207472616e73666572206f6620746f6b656e2074686174206973206e6f74206f776e4552433732314d657461646174613a2055524920717565727920666f72206e6f6e6578697374656e7420746f6b656e4552433732313a20617070726f76616c20746f2063757272656e74206f776e65724552433732313a207472616e736665722063616c6c6572206973206e6f74206f776e6572206e6f7220617070726f766564a26469706673582212201d5ccf9e07c235a48a54c2e8ff16df89e1bc49cc55c0dafde8e1127c28160d2764736f6c63430006020033",
  "source": "pragma solidity ^0.6.0;\r\n\r\nimport \"@openzeppelin/contracts/token/ERC721/ERC721.sol\";\r\nimport \"@openzeppelin/contracts/utils/Counters.sol\";\r\n\r\ncontract Skull is ERC721 {\r\n    using Counters for Counters.Counter;\r\n    Counters.Counter private _tokenIds;\r\n\r\n    address public owner;\r\n    Color public color;\r\n    string public message;\r\n\r\n    struct Color {\r\n        uint8 r;\r\n        uint8 g;\r\n        uint8 b;\r\n    }\r\n\r\n    event ColorChange(address indexed _changer, uint8 _r, uint8 _g, uint8 _b);\r\n    event MessageChange(address indexed _changer, string _message);\r\n\r\n    constructor() public ERC721(\"SkullToken\", \"SKL\") {\r\n        owner = msg.sender;\r\n        color = Color(255, 0, 0);\r\n        message = \"henlo\";\r\n    }\r\n\r\n    modifier restricted() {\r\n        if (msg.sender == owner) _;\r\n    }\r\n\r\n    function setColor(\r\n        uint8 _r,\r\n        uint8 _g,\r\n        uint8 _b,\r\n        address skullChanger,\r\n        string memory tokenURI\r\n    ) public {\r\n        Color memory _color = Color(_r, _g, _b);\r\n        _tokenIds.increment();\r\n        uint256 newSkullId = _tokenIds.current();\r\n        _mint(skullChanger, newSkullId);\r\n        _setTokenURI(newSkullId, tokenURI);\r\n        color = _color;\r\n        emit ColorChange(msg.sender, _r, _g, _b);\r\n    }\r\n\r\n    function setMessage(string memory _message) public {\r\n        message = _message;\r\n        emit MessageChange(msg.sender, _message);\r\n    }\r\n}\r\n",
  "sourcePath": "C:\\Users\\ariel\\skull-token\\contracts\\Skull.sol",
  "compiler": {
    "name": "solc",
    "version": "0.6.2+commit.bacdbe57.Emscripten.clang"
  },
  "schemaVersion": "3.2.0",
  "updatedAt": "2020-10-24T16:35:20.004Z",
  "networkType": "ethereum",
  "devdoc": {
    "methods": {
      "approve(address,uint256)": {
        "details": "See {IERC721-approve}."
      },
      "balanceOf(address)": {
        "details": "See {IERC721-balanceOf}."
      },
      "baseURI()": {
        "details": "Returns the base URI set via {_setBaseURI}. This will be automatically added as a prefix in {tokenURI} to each token's URI, or to the token ID if no specific URI is set for that token ID."
      },
      "getApproved(uint256)": {
        "details": "See {IERC721-getApproved}."
      },
      "isApprovedForAll(address,address)": {
        "details": "See {IERC721-isApprovedForAll}."
      },
      "name()": {
        "details": "See {IERC721Metadata-name}."
      },
      "ownerOf(uint256)": {
        "details": "See {IERC721-ownerOf}."
      },
      "safeTransferFrom(address,address,uint256)": {
        "details": "See {IERC721-safeTransferFrom}."
      },
      "safeTransferFrom(address,address,uint256,bytes)": {
        "details": "See {IERC721-safeTransferFrom}."
      },
      "setApprovalForAll(address,bool)": {
        "details": "See {IERC721-setApprovalForAll}."
      },
      "supportsInterface(bytes4)": {
        "details": "See {IERC165-supportsInterface}.     * Time complexity O(1), guaranteed to always use less than 30 000 gas."
      },
      "symbol()": {
        "details": "See {IERC721Metadata-symbol}."
      },
      "tokenByIndex(uint256)": {
        "details": "See {IERC721Enumerable-tokenByIndex}."
      },
      "tokenOfOwnerByIndex(address,uint256)": {
        "details": "See {IERC721Enumerable-tokenOfOwnerByIndex}."
      },
      "tokenURI(uint256)": {
        "details": "See {IERC721Metadata-tokenURI}."
      },
      "totalSupply()": {
        "details": "See {IERC721Enumerable-totalSupply}."
      },
      "transferFrom(address,address,uint256)": {
        "details": "See {IERC721-transferFrom}."
      }
    }
  },
  "userdoc": {
    "methods": {}
  }
}