{
  "contractName": "Skull",
  "abi": [
    {
      "inputs": [],
      "payable": false,
      "stateMutability": "nonpayable",
      "type": "constructor"
    },
    {
      "anonymous": false,
      "inputs": [
        {
          "indexed": true,
          "internalType": "address",
          "name": "_changer",
          "type": "address"
        },
        {
          "indexed": false,
          "internalType": "uint8",
          "name": "_r",
          "type": "uint8"
        },
        {
          "indexed": false,
          "internalType": "uint8",
          "name": "_g",
          "type": "uint8"
        },
        {
          "indexed": false,
          "internalType": "uint8",
          "name": "_b",
          "type": "uint8"
        }
      ],
      "name": "ColorChange",
      "type": "event"
    },
    {
      "constant": true,
      "inputs": [],
      "name": "color",
      "outputs": [
        {
          "internalType": "uint8",
          "name": "r",
          "type": "uint8"
        },
        {
          "internalType": "uint8",
          "name": "g",
          "type": "uint8"
        },
        {
          "internalType": "uint8",
          "name": "b",
          "type": "uint8"
        }
      ],
      "payable": false,
      "stateMutability": "view",
      "type": "function"
    },
    {
      "constant": true,
      "inputs": [],
      "name": "owner",
      "outputs": [
        {
          "internalType": "address",
          "name": "",
          "type": "address"
        }
      ],
      "payable": false,
      "stateMutability": "view",
      "type": "function"
    },
    {
      "constant": false,
      "inputs": [
        {
          "internalType": "uint8",
          "name": "_r",
          "type": "uint8"
        },
        {
          "internalType": "uint8",
          "name": "_g",
          "type": "uint8"
        },
        {
          "internalType": "uint8",
          "name": "_b",
          "type": "uint8"
        }
      ],
      "name": "setColor",
      "outputs": [],
      "payable": false,
      "stateMutability": "nonpayable",
      "type": "function"
    }
  ],
  "bytecode": "0x608060405234801561001057600080fd5b50336000806101000a81548173ffffffffffffffffffffffffffffffffffffffff021916908373ffffffffffffffffffffffffffffffffffffffff160217905550604051806060016040528060ff80168152602001600060ff168152602001600060ff16815250600160008201518160000160006101000a81548160ff021916908360ff16021790555060208201518160000160016101000a81548160ff021916908360ff16021790555060408201518160000160026101000a81548160ff021916908360ff1602179055509050506102e9806100ee6000396000f3fe608060405234801561001057600080fd5b50600436106100415760003560e01c8063610c76f0146100465780638da5cb5b14610091578063cf08fed5146100db575b600080fd5b61008f6004803603606081101561005c57600080fd5b81019080803560ff169060200190929190803560ff169060200190929190803560ff169060200190929190505050610119565b005b610099610226565b604051808273ffffffffffffffffffffffffffffffffffffffff1673ffffffffffffffffffffffffffffffffffffffff16815260200191505060405180910390f35b6100e361024b565b604051808460ff1660ff1681526020018360ff1660ff1681526020018260ff1660ff168152602001935050505060405180910390f35b61012161028a565b60405180606001604052808560ff1681526020018460ff1681526020018360ff16815250905080600160008201518160000160006101000a81548160ff021916908360ff16021790555060208201518160000160016101000a81548160ff021916908360ff16021790555060408201518160000160026101000a81548160ff021916908360ff1602179055509050503373ffffffffffffffffffffffffffffffffffffffff167fa798a24729a8229dc2ed06735c1c18fcae1d5c580855628b9dfd7f3c291c8b25858585604051808460ff1660ff1681526020018360ff1660ff1681526020018260ff1660ff168152602001935050505060405180910390a250505050565b6000809054906101000a900473ffffffffffffffffffffffffffffffffffffffff1681565b60018060000160009054906101000a900460ff16908060000160019054906101000a900460ff16908060000160029054906101000a900460ff16905083565b6040518060600160405280600060ff168152602001600060ff168152602001600060ff168152509056fea265627a7a7231582092ee54d95a58e6be841404cece14dd5b6e662d704382ccffc1e01728a2954b0464736f6c63430005100032",
  "source": "pragma solidity >=0.4.21 <0.7.0;\r\n\r\ncontract Skull {\r\n    address public owner;\r\n    Color public color;\r\n\r\n    struct Color {\r\n        uint8 r;\r\n        uint8 g;\r\n        uint8 b;\r\n    }\r\n\r\n    event ColorChange(address indexed _changer, uint8 _r, uint8 _g, uint8 _b);\r\n\r\n    constructor() public {\r\n        owner = msg.sender;\r\n        color = Color(255, 0, 0);\r\n    }\r\n\r\n    modifier restricted() {\r\n        if (msg.sender == owner) _;\r\n    }\r\n\r\n    function setColor(\r\n        uint8 _r,\r\n        uint8 _g,\r\n        uint8 _b\r\n    ) public {\r\n        Color memory _color = Color(_r, _g, _b);\r\n        color = _color;\r\n        emit ColorChange(msg.sender, _r, _g, _b);\r\n    }\r\n}\r\n",
  "sourcePath": "C:\\Users\\ariel\\skull-token\\contracts\\Skull.sol",
  "compiler": {
    "name": "solc",
    "version": "0.5.16+commit.9c3226ce.Emscripten.clang"
  },
  "schemaVersion": "3.2.0",
  "updatedAt": "2020-06-21T22:32:18.701Z",
  "networkType": "ethereum",
  "devdoc": {
    "methods": {}
  },
  "userdoc": {
    "methods": {}
  }
}