{
  "contractName": "Skull",
  "abi": [
    {
      "inputs": [],
      "stateMutability": "nonpayable",
      "type": "constructor"
    },
    {
      "anonymous": false,
      "inputs": [
        {
          "indexed": true,
          "internalType": "address",
          "name": "owner",
          "type": "address"
        },
        {
          "indexed": true,
          "internalType": "address",
          "name": "approved",
          "type": "address"
        },
        {
          "indexed": true,
          "internalType": "uint256",
          "name": "tokenId",
          "type": "uint256"
        }
      ],
      "name": "Approval",
      "type": "event"
    },
    {
      "anonymous": false,
      "inputs": [
        {
          "indexed": true,
          "internalType": "address",
          "name": "owner",
          "type": "address"
        },
        {
          "indexed": true,
          "internalType": "address",
          "name": "operator",
          "type": "address"
        },
        {
          "indexed": false,
          "internalType": "bool",
          "name": "approved",
          "type": "bool"
        }
      ],
      "name": "ApprovalForAll",
      "type": "event"
    },
    {
      "anonymous": false,
      "inputs": [
        {
          "indexed": true,
          "internalType": "address",
          "name": "_changer",
          "type": "address"
        },
        {
          "indexed": false,
          "internalType": "uint8",
          "name": "_r",
          "type": "uint8"
        },
        {
          "indexed": false,
          "internalType": "uint8",
          "name": "_g",
          "type": "uint8"
        },
        {
          "indexed": false,
          "internalType": "uint8",
          "name": "_b",
          "type": "uint8"
        }
      ],
      "name": "ColorChange",
      "type": "event"
    },
    {
      "anonymous": false,
      "inputs": [
        {
          "indexed": true,
          "internalType": "address",
          "name": "_changer",
          "type": "address"
        },
        {
          "indexed": false,
          "internalType": "string",
          "name": "_message",
          "type": "string"
        }
      ],
      "name": "MessageChange",
      "type": "event"
    },
    {
      "anonymous": false,
      "inputs": [
        {
          "indexed": true,
          "internalType": "address",
          "name": "from",
          "type": "address"
        },
        {
          "indexed": true,
          "internalType": "address",
          "name": "to",
          "type": "address"
        },
        {
          "indexed": true,
          "internalType": "uint256",
          "name": "tokenId",
          "type": "uint256"
        }
      ],
      "name": "Transfer",
      "type": "event"
    },
    {
      "inputs": [
        {
          "internalType": "address",
          "name": "to",
          "type": "address"
        },
        {
          "internalType": "uint256",
          "name": "tokenId",
          "type": "uint256"
        }
      ],
      "name": "approve",
      "outputs": [],
      "stateMutability": "nonpayable",
      "type": "function"
    },
    {
      "inputs": [
        {
          "internalType": "address",
          "name": "owner",
          "type": "address"
        }
      ],
      "name": "balanceOf",
      "outputs": [
        {
          "internalType": "uint256",
          "name": "",
          "type": "uint256"
        }
      ],
      "stateMutability": "view",
      "type": "function",
      "constant": true
    },
    {
      "inputs": [],
      "name": "baseURI",
      "outputs": [
        {
          "internalType": "string",
          "name": "",
          "type": "string"
        }
      ],
      "stateMutability": "view",
      "type": "function",
      "constant": true
    },
    {
      "inputs": [
        {
          "internalType": "uint256",
          "name": "",
          "type": "uint256"
        }
      ],
      "name": "claimedColors",
      "outputs": [
        {
          "internalType": "uint8",
          "name": "r",
          "type": "uint8"
        },
        {
          "internalType": "uint8",
          "name": "g",
          "type": "uint8"
        },
        {
          "internalType": "uint8",
          "name": "b",
          "type": "uint8"
        }
      ],
      "stateMutability": "view",
      "type": "function",
      "constant": true
    },
    {
      "inputs": [],
      "name": "color",
      "outputs": [
        {
          "internalType": "uint8",
          "name": "r",
          "type": "uint8"
        },
        {
          "internalType": "uint8",
          "name": "g",
          "type": "uint8"
        },
        {
          "internalType": "uint8",
          "name": "b",
          "type": "uint8"
        }
      ],
      "stateMutability": "view",
      "type": "function",
      "constant": true
    },
    {
      "inputs": [
        {
          "internalType": "uint256",
          "name": "tokenId",
          "type": "uint256"
        }
      ],
      "name": "getApproved",
      "outputs": [
        {
          "internalType": "address",
          "name": "",
          "type": "address"
        }
      ],
      "stateMutability": "view",
      "type": "function",
      "constant": true
    },
    {
      "inputs": [
        {
          "internalType": "address",
          "name": "owner",
          "type": "address"
        },
        {
          "internalType": "address",
          "name": "operator",
          "type": "address"
        }
      ],
      "name": "isApprovedForAll",
      "outputs": [
        {
          "internalType": "bool",
          "name": "",
          "type": "bool"
        }
      ],
      "stateMutability": "view",
      "type": "function",
      "constant": true
    },
    {
      "inputs": [],
      "name": "message",
      "outputs": [
        {
          "internalType": "string",
          "name": "",
          "type": "string"
        }
      ],
      "stateMutability": "view",
      "type": "function",
      "constant": true
    },
    {
      "inputs": [],
      "name": "name",
      "outputs": [
        {
          "internalType": "string",
          "name": "",
          "type": "string"
        }
      ],
      "stateMutability": "view",
      "type": "function",
      "constant": true
    },
    {
      "inputs": [],
      "name": "owner",
      "outputs": [
        {
          "internalType": "address",
          "name": "",
          "type": "address"
        }
      ],
      "stateMutability": "view",
      "type": "function",
      "constant": true
    },
    {
      "inputs": [
        {
          "internalType": "uint256",
          "name": "tokenId",
          "type": "uint256"
        }
      ],
      "name": "ownerOf",
      "outputs": [
        {
          "internalType": "address",
          "name": "",
          "type": "address"
        }
      ],
      "stateMutability": "view",
      "type": "function",
      "constant": true
    },
    {
      "inputs": [
        {
          "internalType": "address",
          "name": "from",
          "type": "address"
        },
        {
          "internalType": "address",
          "name": "to",
          "type": "address"
        },
        {
          "internalType": "uint256",
          "name": "tokenId",
          "type": "uint256"
        }
      ],
      "name": "safeTransferFrom",
      "outputs": [],
      "stateMutability": "nonpayable",
      "type": "function"
    },
    {
      "inputs": [
        {
          "internalType": "address",
          "name": "from",
          "type": "address"
        },
        {
          "internalType": "address",
          "name": "to",
          "type": "address"
        },
        {
          "internalType": "uint256",
          "name": "tokenId",
          "type": "uint256"
        },
        {
          "internalType": "bytes",
          "name": "_data",
          "type": "bytes"
        }
      ],
      "name": "safeTransferFrom",
      "outputs": [],
      "stateMutability": "nonpayable",
      "type": "function"
    },
    {
      "inputs": [
        {
          "internalType": "address",
          "name": "operator",
          "type": "address"
        },
        {
          "internalType": "bool",
          "name": "approved",
          "type": "bool"
        }
      ],
      "name": "setApprovalForAll",
      "outputs": [],
      "stateMutability": "nonpayable",
      "type": "function"
    },
    {
      "inputs": [
        {
          "internalType": "bytes4",
          "name": "interfaceId",
          "type": "bytes4"
        }
      ],
      "name": "supportsInterface",
      "outputs": [
        {
          "internalType": "bool",
          "name": "",
          "type": "bool"
        }
      ],
      "stateMutability": "view",
      "type": "function",
      "constant": true
    },
    {
      "inputs": [],
      "name": "symbol",
      "outputs": [
        {
          "internalType": "string",
          "name": "",
          "type": "string"
        }
      ],
      "stateMutability": "view",
      "type": "function",
      "constant": true
    },
    {
      "inputs": [
        {
          "internalType": "uint256",
          "name": "index",
          "type": "uint256"
        }
      ],
      "name": "tokenByIndex",
      "outputs": [
        {
          "internalType": "uint256",
          "name": "",
          "type": "uint256"
        }
      ],
      "stateMutability": "view",
      "type": "function",
      "constant": true
    },
    {
      "inputs": [
        {
          "internalType": "address",
          "name": "owner",
          "type": "address"
        },
        {
          "internalType": "uint256",
          "name": "index",
          "type": "uint256"
        }
      ],
      "name": "tokenOfOwnerByIndex",
      "outputs": [
        {
          "internalType": "uint256",
          "name": "",
          "type": "uint256"
        }
      ],
      "stateMutability": "view",
      "type": "function",
      "constant": true
    },
    {
      "inputs": [
        {
          "internalType": "uint256",
          "name": "tokenId",
          "type": "uint256"
        }
      ],
      "name": "tokenURI",
      "outputs": [
        {
          "internalType": "string",
          "name": "",
          "type": "string"
        }
      ],
      "stateMutability": "view",
      "type": "function",
      "constant": true
    },
    {
      "inputs": [],
      "name": "totalSupply",
      "outputs": [
        {
          "internalType": "uint256",
          "name": "",
          "type": "uint256"
        }
      ],
      "stateMutability": "view",
      "type": "function",
      "constant": true
    },
    {
      "inputs": [
        {
          "internalType": "address",
          "name": "from",
          "type": "address"
        },
        {
          "internalType": "address",
          "name": "to",
          "type": "address"
        },
        {
          "internalType": "uint256",
          "name": "tokenId",
          "type": "uint256"
        }
      ],
      "name": "transferFrom",
      "outputs": [],
      "stateMutability": "nonpayable",
      "type": "function"
    },
    {
      "inputs": [
        {
          "internalType": "uint8",
          "name": "_r",
          "type": "uint8"
        },
        {
          "internalType": "uint8",
          "name": "_g",
          "type": "uint8"
        },
        {
          "internalType": "uint8",
          "name": "_b",
          "type": "uint8"
        },
        {
          "internalType": "address",
          "name": "skullChanger",
          "type": "address"
        },
        {
          "internalType": "string",
          "name": "tokenURI",
          "type": "string"
        }
      ],
      "name": "setColor",
      "outputs": [],
      "stateMutability": "nonpayable",
      "type": "function"
    },
    {
      "inputs": [
        {
          "internalType": "string",
          "name": "_message",
          "type": "string"
        }
      ],
      "name": "setMessage",
      "outputs": [],
      "stateMutability": "nonpayable",
      "type": "function"
    }
  ],
  "bytecode": "0x60806040523480156200001157600080fd5b506040518060400160405280600a81526020017f536b756c6c546f6b656e000000000000000000000000000000000000000000008152506040518060400160405280600381526020017f534b4c0000000000000000000000000000000000000000000000000000000000815250620000966301ffc9a760e01b6200023560201b60201c565b8160069080519060200190620000ae9291906200033e565b508060079080519060200190620000c79291906200033e565b50620000e06380ac58cd60e01b6200023560201b60201c565b620000f8635b5e139f60e01b6200023560201b60201c565b6200011063780e9d6360e01b6200023560201b60201c565b505033600b60006101000a81548173ffffffffffffffffffffffffffffffffffffffff021916908373ffffffffffffffffffffffffffffffffffffffff160217905550604051806060016040528060ff80168152602001600060ff168152602001600060ff16815250600c60008201518160000160006101000a81548160ff021916908360ff16021790555060208201518160000160016101000a81548160ff021916908360ff16021790555060408201518160000160026101000a81548160ff021916908360ff1602179055509050506040518060400160405280600581526020017f68656e6c6f000000000000000000000000000000000000000000000000000000815250600d90805190602001906200022e9291906200033e565b50620003ed565b63ffffffff60e01b817bffffffffffffffffffffffffffffffffffffffffffffffffffffffff19161415620002d2576040517f08c379a000000000000000000000000000000000000000000000000000000000815260040180806020018281038252601c8152602001807f4552433136353a20696e76616c696420696e746572666163652069640000000081525060200191505060405180910390fd5b6001600080837bffffffffffffffffffffffffffffffffffffffffffffffffffffffff19167bffffffffffffffffffffffffffffffffffffffffffffffffffffffff1916815260200190815260200160002060006101000a81548160ff02191690831515021790555050565b828054600181600116156101000203166002900490600052602060002090601f016020900481019282601f106200038157805160ff1916838001178555620003b2565b82800160010185558215620003b2579182015b82811115620003b157825182559160200191906001019062000394565b5b509050620003c19190620003c5565b5090565b620003ea91905b80821115620003e6576000816000905550600101620003cc565b5090565b90565b6132d480620003fd6000396000f3fe608060405234801561001057600080fd5b506004361061014d5760003560e01c80634f6ccce7116100c3578063a22cb4651161007c578063a22cb465146108c9578063b88d4fde14610919578063c87b56dd14610a1e578063cf08fed514610ac5578063e21f37ce14610b03578063e985e9c514610b865761014d565b80634f6ccce7146106715780636352211e146106b35780636c0360eb1461072157806370a08231146107a45780638da5cb5b146107fc57806395d89b41146108465761014d565b806323b872dd1161011557806323b872dd146103145780632f745c59146103825780633367594f146103e4578063368b8772146104e657806342842e0e146105a15780634732f0c11461060f5761014d565b806301ffc9a71461015257806306fdde03146101b7578063081812fc1461023a578063095ea7b3146102a857806318160ddd146102f6575b600080fd5b61019d6004803603602081101561016857600080fd5b8101908080357bffffffffffffffffffffffffffffffffffffffffffffffffffffffff19169060200190929190505050610c02565b604051808215151515815260200191505060405180910390f35b6101bf610c69565b6040518080602001828103825283818151815260200191508051906020019080838360005b838110156101ff5780820151818401526020810190506101e4565b50505050905090810190601f16801561022c5780820380516001836020036101000a031916815260200191505b509250505060405180910390f35b6102666004803603602081101561025057600080fd5b8101908080359060200190929190505050610d0b565b604051808273ffffffffffffffffffffffffffffffffffffffff1673ffffffffffffffffffffffffffffffffffffffff16815260200191505060405180910390f35b6102f4600480360360408110156102be57600080fd5b81019080803573ffffffffffffffffffffffffffffffffffffffff16906020019092919080359060200190929190505050610da6565b005b6102fe610eea565b6040518082815260200191505060405180910390f35b6103806004803603606081101561032a57600080fd5b81019080803573ffffffffffffffffffffffffffffffffffffffff169060200190929190803573ffffffffffffffffffffffffffffffffffffffff16906020019092919080359060200190929190505050610efb565b005b6103ce6004803603604081101561039857600080fd5b81019080803573ffffffffffffffffffffffffffffffffffffffff16906020019092919080359060200190929190505050610f71565b6040518082815260200191505060405180910390f35b6104e4600480360360a08110156103fa57600080fd5b81019080803560ff169060200190929190803560ff169060200190929190803560ff169060200190929190803573ffffffffffffffffffffffffffffffffffffffff1690602001909291908035906020019064010000000081111561045e57600080fd5b82018360208201111561047057600080fd5b8035906020019184600183028401116401000000008311171561049257600080fd5b91908080601f016020809104026020016040519081016040528093929190818152602001838380828437600081840152601f19601f820116905080830192505050505050509192919290505050610fcc565b005b61059f600480360360208110156104fc57600080fd5b810190808035906020019064010000000081111561051957600080fd5b82018360208201111561052b57600080fd5b8035906020019184600183028401116401000000008311171561054d57600080fd5b91908080601f016020809104026020016040519081016040528093929190818152602001838380828437600081840152601f19601f82011690508083019250505050505050919291929050505061124c565b005b61060d600480360360608110156105b757600080fd5b81019080803573ffffffffffffffffffffffffffffffffffffffff169060200190929190803573ffffffffffffffffffffffffffffffffffffffff16906020019092919080359060200190929190505050611319565b005b61063b6004803603602081101561062557600080fd5b8101908080359060200190929190505050611339565b604051808460ff1660ff1681526020018360ff1660ff1681526020018260ff1660ff168152602001935050505060405180910390f35b61069d6004803603602081101561068757600080fd5b810190808035906020019092919050505061138a565b6040518082815260200191505060405180910390f35b6106df600480360360208110156106c957600080fd5b81019080803590602001909291905050506113ad565b604051808273ffffffffffffffffffffffffffffffffffffffff1673ffffffffffffffffffffffffffffffffffffffff16815260200191505060405180910390f35b6107296113e4565b6040518080602001828103825283818151815260200191508051906020019080838360005b8381101561076957808201518184015260208101905061074e565b50505050905090810190601f1680156107965780820380516001836020036101000a031916815260200191505b509250505060405180910390f35b6107e6600480360360208110156107ba57600080fd5b81019080803573ffffffffffffffffffffffffffffffffffffffff169060200190929190505050611486565b6040518082815260200191505060405180910390f35b61080461155b565b604051808273ffffffffffffffffffffffffffffffffffffffff1673ffffffffffffffffffffffffffffffffffffffff16815260200191505060405180910390f35b61084e611581565b6040518080602001828103825283818151815260200191508051906020019080838360005b8381101561088e578082015181840152602081019050610873565b50505050905090810190601f1680156108bb5780820380516001836020036101000a031916815260200191505b509250505060405180910390f35b610917600480360360408110156108df57600080fd5b81019080803573ffffffffffffffffffffffffffffffffffffffff169060200190929190803515159060200190929190505050611623565b005b610a1c6004803603608081101561092f57600080fd5b81019080803573ffffffffffffffffffffffffffffffffffffffff169060200190929190803573ffffffffffffffffffffffffffffffffffffffff169060200190929190803590602001909291908035906020019064010000000081111561099657600080fd5b8201836020820111156109a857600080fd5b803590602001918460018302840111640100000000831117156109ca57600080fd5b91908080601f016020809104026020016040519081016040528093929190818152602001838380828437600081840152601f19601f8201169050808301925050505050505091929192905050506117db565b005b610a4a60048036036020811015610a3457600080fd5b8101908080359060200190929190505050611853565b6040518080602001828103825283818151815260200191508051906020019080838360005b83811015610a8a578082015181840152602081019050610a6f565b50505050905090810190601f168015610ab75780820380516001836020036101000a031916815260200191505b509250505060405180910390f35b610acd611b3c565b604051808460ff1660ff1681526020018360ff1660ff1681526020018260ff1660ff168152602001935050505060405180910390f35b610b0b611b7b565b6040518080602001828103825283818151815260200191508051906020019080838360005b83811015610b4b578082015181840152602081019050610b30565b50505050905090810190601f168015610b785780820380516001836020036101000a031916815260200191505b509250505060405180910390f35b610be860048036036040811015610b9c57600080fd5b81019080803573ffffffffffffffffffffffffffffffffffffffff169060200190929190803573ffffffffffffffffffffffffffffffffffffffff169060200190929190505050611c19565b604051808215151515815260200191505060405180910390f35b6000806000837bffffffffffffffffffffffffffffffffffffffffffffffffffffffff19167bffffffffffffffffffffffffffffffffffffffffffffffffffffffff1916815260200190815260200160002060009054906101000a900460ff169050919050565b606060068054600181600116156101000203166002900480601f016020809104026020016040519081016040528092919081815260200182805460018160011615610100020316600290048015610d015780601f10610cd657610100808354040283529160200191610d01565b820191906000526020600020905b815481529060010190602001808311610ce457829003601f168201915b5050505050905090565b6000610d1682611cad565b610d6b576040517f08c379a000000000000000000000000000000000000000000000000000000000815260040180806020018281038252602c81526020018061319d602c913960400191505060405180910390fd5b6004600083815260200190815260200160002060009054906101000a900473ffffffffffffffffffffffffffffffffffffffff169050919050565b6000610db1826113ad565b90508073ffffffffffffffffffffffffffffffffffffffff168373ffffffffffffffffffffffffffffffffffffffff161415610e38576040517f08c379a000000000000000000000000000000000000000000000000000000000815260040180806020018281038252602181526020018061324d6021913960400191505060405180910390fd5b8073ffffffffffffffffffffffffffffffffffffffff16610e57611cca565b73ffffffffffffffffffffffffffffffffffffffff161480610e865750610e8581610e80611cca565b611c19565b5b610edb576040517f08c379a00000000000000000000000000000000000000000000000000000000081526004018080602001828103825260388152602001806130f06038913960400191505060405180910390fd5b610ee58383611cd2565b505050565b6000610ef66002611d8b565b905090565b610f0c610f06611cca565b82611da0565b610f61576040517f08c379a000000000000000000000000000000000000000000000000000000000815260040180806020018281038252603181526020018061326e6031913960400191505060405180910390fd5b610f6c838383611e94565b505050565b6000610fc482600160008673ffffffffffffffffffffffffffffffffffffffff1673ffffffffffffffffffffffffffffffffffffffff1681526020019081526020016000206120d790919063ffffffff16565b905092915050565b6000600190505b6001610fdf600a6120f1565b0181101561110f576000600e600083815260200190815260200160002060000160009054906101000a900460ff1690506000600e600084815260200190815260200160002060000160019054906101000a900460ff1690506000600e600085815260200190815260200160002060000160029054906101000a900460ff1690508260ff168960ff161415801561107b57508160ff168860ff1614155b801561108d57508060ff168760ff1614155b6110ff576040517f08c379a000000000000000000000000000000000000000000000000000000000815260040180806020018281038252600d8152602001807f436f6c6f7220697320757365640000000000000000000000000000000000000081525060200191505060405180910390fd5b5050508080600101915050610fd3565b50611118612f7c565b60405180606001604052808760ff1681526020018660ff1681526020018560ff16815250905080600c60008201518160000160006101000a81548160ff021916908360ff16021790555060208201518160000160016101000a81548160ff021916908360ff16021790555060408201518160000160026101000a81548160ff021916908360ff1602179055509050506111b1600a6120ff565b60006111bd600a6120f1565b90506111c98482612115565b6111d38184612309565b3373ffffffffffffffffffffffffffffffffffffffff167fa798a24729a8229dc2ed06735c1c18fcae1d5c580855628b9dfd7f3c291c8b25888888604051808460ff1660ff1681526020018360ff1660ff1681526020018260ff1660ff168152602001935050505060405180910390a250505050505050565b80600d9080519060200190611262929190612fa6565b503373ffffffffffffffffffffffffffffffffffffffff167f659307a903e45967d2d2d7b7b87bd108bace2c83d3017eba4ce1df9ea2ae1872826040518080602001828103825283818151815260200191508051906020019080838360005b838110156112dc5780820151818401526020810190506112c1565b50505050905090810190601f1680156113095780820380516001836020036101000a031916815260200191505b509250505060405180910390a250565b611334838383604051806020016040528060008152506117db565b505050565b600e6020528060005260406000206000915090508060000160009054906101000a900460ff16908060000160019054906101000a900460ff16908060000160029054906101000a900460ff16905083565b6000806113a183600261239390919063ffffffff16565b50905080915050919050565b60006113dd826040518060600160405280602981526020016131526029913960026123c29092919063ffffffff16565b9050919050565b606060098054600181600116156101000203166002900480601f01602080910402602001604051908101604052809291908181526020018280546001816001161561010002031660029004801561147c5780601f106114515761010080835404028352916020019161147c565b820191906000526020600020905b81548152906001019060200180831161145f57829003601f168201915b5050505050905090565b60008073ffffffffffffffffffffffffffffffffffffffff168273ffffffffffffffffffffffffffffffffffffffff16141561150d576040517f08c379a000000000000000000000000000000000000000000000000000000000815260040180806020018281038252602a815260200180613128602a913960400191505060405180910390fd5b611554600160008473ffffffffffffffffffffffffffffffffffffffff1673ffffffffffffffffffffffffffffffffffffffff1681526020019081526020016000206123e1565b9050919050565b600b60009054906101000a900473ffffffffffffffffffffffffffffffffffffffff1681565b606060078054600181600116156101000203166002900480601f0160208091040260200160405190810160405280929190818152602001828054600181600116156101000203166002900480156116195780601f106115ee57610100808354040283529160200191611619565b820191906000526020600020905b8154815290600101906020018083116115fc57829003601f168201915b5050505050905090565b61162b611cca565b73ffffffffffffffffffffffffffffffffffffffff168273ffffffffffffffffffffffffffffffffffffffff1614156116cc576040517f08c379a00000000000000000000000000000000000000000000000000000000081526004018080602001828103825260198152602001807f4552433732313a20617070726f766520746f2063616c6c65720000000000000081525060200191505060405180910390fd5b80600560006116d9611cca565b73ffffffffffffffffffffffffffffffffffffffff1673ffffffffffffffffffffffffffffffffffffffff16815260200190815260200160002060008473ffffffffffffffffffffffffffffffffffffffff1673ffffffffffffffffffffffffffffffffffffffff16815260200190815260200160002060006101000a81548160ff0219169083151502179055508173ffffffffffffffffffffffffffffffffffffffff16611786611cca565b73ffffffffffffffffffffffffffffffffffffffff167f17307eab39ab6107e8899845ad3d59bd9653f200f220920489ca2b5937696c3183604051808215151515815260200191505060405180910390a35050565b6117ec6117e6611cca565b83611da0565b611841576040517f08c379a000000000000000000000000000000000000000000000000000000000815260040180806020018281038252603181526020018061326e6031913960400191505060405180910390fd5b61184d848484846123f6565b50505050565b606061185e82611cad565b6118b3576040517f08c379a000000000000000000000000000000000000000000000000000000000815260040180806020018281038252602f81526020018061321e602f913960400191505060405180910390fd5b6060600860008481526020019081526020016000208054600181600116156101000203166002900480601f01602080910402602001604051908101604052809291908181526020018280546001816001161561010002031660029004801561195c5780601f106119315761010080835404028352916020019161195c565b820191906000526020600020905b81548152906001019060200180831161193f57829003601f168201915b5050505050905060006009805460018160011615610100020316600290049050141561198b5780915050611b37565b600081511115611a645760098160405160200180838054600181600116156101000203166002900480156119f65780601f106119d45761010080835404028352918201916119f6565b820191906000526020600020905b8154815290600101906020018083116119e2575b505082805190602001908083835b60208310611a275780518252602082019150602081019050602083039250611a04565b6001836020036101000a03801982511681845116808217855250505050505090500192505050604051602081830303815290604052915050611b37565b6009611a6f84612468565b6040516020018083805460018160011615610100020316600290048015611acd5780601f10611aab576101008083540402835291820191611acd565b820191906000526020600020905b815481529060010190602001808311611ab9575b505082805190602001908083835b60208310611afe5780518252602082019150602081019050602083039250611adb565b6001836020036101000a038019825116818451168082178552505050505050905001925050506040516020818303038152906040529150505b919050565b600c8060000160009054906101000a900460ff16908060000160019054906101000a900460ff16908060000160029054906101000a900460ff16905083565b600d8054600181600116156101000203166002900480601f016020809104026020016040519081016040528092919081815260200182805460018160011615610100020316600290048015611c115780601f10611be657610100808354040283529160200191611c11565b820191906000526020600020905b815481529060010190602001808311611bf457829003601f168201915b505050505081565b6000600560008473ffffffffffffffffffffffffffffffffffffffff1673ffffffffffffffffffffffffffffffffffffffff16815260200190815260200160002060008373ffffffffffffffffffffffffffffffffffffffff1673ffffffffffffffffffffffffffffffffffffffff16815260200190815260200160002060009054906101000a900460ff16905092915050565b6000611cc382600261259890919063ffffffff16565b9050919050565b600033905090565b816004600083815260200190815260200160002060006101000a81548173ffffffffffffffffffffffffffffffffffffffff021916908373ffffffffffffffffffffffffffffffffffffffff160217905550808273ffffffffffffffffffffffffffffffffffffffff16611d45836113ad565b73ffffffffffffffffffffffffffffffffffffffff167f8c5be1e5ebec7d5bd14f71427d1e84f3dd0314c0f7b2291e5b200ac8c7c3b92560405160405180910390a45050565b6000611d99826000016125b2565b9050919050565b6000611dab82611cad565b611e00576040517f08c379a000000000000000000000000000000000000000000000000000000000815260040180806020018281038252602c8152602001806130c4602c913960400191505060405180910390fd5b6000611e0b836113ad565b90508073ffffffffffffffffffffffffffffffffffffffff168473ffffffffffffffffffffffffffffffffffffffff161480611e7a57508373ffffffffffffffffffffffffffffffffffffffff16611e6284610d0b565b73ffffffffffffffffffffffffffffffffffffffff16145b80611e8b5750611e8a8185611c19565b5b91505092915050565b8273ffffffffffffffffffffffffffffffffffffffff16611eb4826113ad565b73ffffffffffffffffffffffffffffffffffffffff1614611f20576040517f08c379a00000000000000000000000000000000000000000000000000000000081526004018080602001828103825260298152602001806131f56029913960400191505060405180910390fd5b600073ffffffffffffffffffffffffffffffffffffffff168273ffffffffffffffffffffffffffffffffffffffff161415611fa6576040517f08c379a00000000000000000000000000000000000000000000000000000000081526004018080602001828103825260248152602001806130a06024913960400191505060405180910390fd5b611fb18383836125c3565b611fbc600082611cd2565b61200d81600160008673ffffffffffffffffffffffffffffffffffffffff1673ffffffffffffffffffffffffffffffffffffffff1681526020019081526020016000206125c890919063ffffffff16565b5061205f81600160008573ffffffffffffffffffffffffffffffffffffffff1673ffffffffffffffffffffffffffffffffffffffff1681526020019081526020016000206125e290919063ffffffff16565b50612076818360026125fc9092919063ffffffff16565b50808273ffffffffffffffffffffffffffffffffffffffff168473ffffffffffffffffffffffffffffffffffffffff167fddf252ad1be2c89b69c2b068fc378daa952ba7f163c4a11628f55a4df523b3ef60405160405180910390a4505050565b60006120e68360000183612631565b60001c905092915050565b600081600001549050919050565b6001816000016000828254019250508190555050565b600073ffffffffffffffffffffffffffffffffffffffff168273ffffffffffffffffffffffffffffffffffffffff1614156121b8576040517f08c379a00000000000000000000000000000000000000000000000000000000081526004018080602001828103825260208152602001807f4552433732313a206d696e7420746f20746865207a65726f206164647265737381525060200191505060405180910390fd5b6121c181611cad565b15612234576040517f08c379a000000000000000000000000000000000000000000000000000000000815260040180806020018281038252601c8152602001807f4552433732313a20746f6b656e20616c7265616479206d696e7465640000000081525060200191505060405180910390fd5b612240600083836125c3565b61229181600160008573ffffffffffffffffffffffffffffffffffffffff1673ffffffffffffffffffffffffffffffffffffffff1681526020019081526020016000206125e290919063ffffffff16565b506122a8818360026125fc9092919063ffffffff16565b50808273ffffffffffffffffffffffffffffffffffffffff16600073ffffffffffffffffffffffffffffffffffffffff167fddf252ad1be2c89b69c2b068fc378daa952ba7f163c4a11628f55a4df523b3ef60405160405180910390a45050565b61231282611cad565b612367576040517f08c379a000000000000000000000000000000000000000000000000000000000815260040180806020018281038252602c8152602001806131c9602c913960400191505060405180910390fd5b8060086000848152602001908152602001600020908051906020019061238e929190612fa6565b505050565b6000806000806123a686600001866126b4565b915091508160001c8160001c8090509350935050509250929050565b60006123d5846000018460001b8461274d565b60001c90509392505050565b60006123ef82600001612843565b9050919050565b612401848484611e94565b61240d84848484612854565b612462576040517f08c379a000000000000000000000000000000000000000000000000000000000815260040180806020018281038252603281526020018061306e6032913960400191505060405180910390fd5b50505050565b606060008214156124b0576040518060400160405280600181526020017f30000000000000000000000000000000000000000000000000000000000000008152509050612593565b600082905060005b600082146124da578080600101915050600a82816124d257fe5b0491506124b8565b6060816040519080825280601f01601f19166020018201604052801561250f5781602001600182028038833980820191505090505b50905060006001830390508593505b6000841461258b57600a848161253057fe5b0660300160f81b8282806001900393508151811061254a57fe5b60200101907effffffffffffffffffffffffffffffffffffffffffffffffffffffffffffff1916908160001a905350600a848161258357fe5b04935061251e565b819450505050505b919050565b60006125aa836000018360001b612a99565b905092915050565b600081600001805490509050919050565b505050565b60006125da836000018360001b612abc565b905092915050565b60006125f4836000018360001b612ba4565b905092915050565b6000612628846000018460001b8473ffffffffffffffffffffffffffffffffffffffff1660001b612c14565b90509392505050565b600081836000018054905011612692576040517f08c379a000000000000000000000000000000000000000000000000000000000815260040180806020018281038252602281526020018061304c6022913960400191505060405180910390fd5b8260000182815481106126a157fe5b9060005260206000200154905092915050565b60008082846000018054905011612716576040517f08c379a000000000000000000000000000000000000000000000000000000000815260040180806020018281038252602281526020018061317b6022913960400191505060405180910390fd5b600084600001848154811061272757fe5b906000526020600020906002020190508060000154816001015492509250509250929050565b60008084600101600085815260200190815260200160002054905060008114158390612814576040517f08c379a00000000000000000000000000000000000000000000000000000000081526004018080602001828103825283818151815260200191508051906020019080838360005b838110156127d95780820151818401526020810190506127be565b50505050905090810190601f1680156128065780820380516001836020036101000a031916815260200191505b509250505060405180910390fd5b5084600001600182038154811061282757fe5b9060005260206000209060020201600101549150509392505050565b600081600001805490509050919050565b60006128758473ffffffffffffffffffffffffffffffffffffffff16612cf0565b6128825760019050612a91565b6060612a1863150b7a0260e01b612897611cca565b888787604051602401808573ffffffffffffffffffffffffffffffffffffffff1673ffffffffffffffffffffffffffffffffffffffff1681526020018473ffffffffffffffffffffffffffffffffffffffff1673ffffffffffffffffffffffffffffffffffffffff16815260200183815260200180602001828103825283818151815260200191508051906020019080838360005b8381101561294757808201518184015260208101905061292c565b50505050905090810190601f1680156129745780820380516001836020036101000a031916815260200191505b5095505050505050604051602081830303815290604052907bffffffffffffffffffffffffffffffffffffffffffffffffffffffff19166020820180517bffffffffffffffffffffffffffffffffffffffffffffffffffffffff838183161783525050505060405180606001604052806032815260200161306e603291398773ffffffffffffffffffffffffffffffffffffffff16612d3b9092919063ffffffff16565b90506000818060200190516020811015612a3157600080fd5b8101908080519060200190929190505050905063150b7a0260e01b7bffffffffffffffffffffffffffffffffffffffffffffffffffffffff1916817bffffffffffffffffffffffffffffffffffffffffffffffffffffffff191614925050505b949350505050565b600080836001016000848152602001908152602001600020541415905092915050565b60008083600101600084815260200190815260200160002054905060008114612b985760006001820390506000600186600001805490500390506000866000018281548110612b0757fe5b9060005260206000200154905080876000018481548110612b2457fe5b9060005260206000200181905550600183018760010160008381526020019081526020016000208190555086600001805480612b5c57fe5b60019003818190600052602060002001600090559055866001016000878152602001908152602001600020600090556001945050505050612b9e565b60009150505b92915050565b6000612bb08383612d53565b612c09578260000182908060018154018082558091505060019003906000526020600020016000909190919091505582600001805490508360010160008481526020019081526020016000208190555060019050612c0e565b600090505b92915050565b6000808460010160008581526020019081526020016000205490506000811415612cbb57846000016040518060400160405280868152602001858152509080600181540180825580915050600190039060005260206000209060020201600090919091909150600082015181600001556020820151816001015550508460000180549050856001016000868152602001908152602001600020819055506001915050612ce9565b82856000016001830381548110612cce57fe5b90600052602060002090600202016001018190555060009150505b9392505050565b60008060007fc5d2460186f7233c927e7db2dcc703c0e500b653ca82273b7bfad8045d85a47060001b9050833f9150808214158015612d3257506000801b8214155b92505050919050565b6060612d4a8484600085612d76565b90509392505050565b600080836001016000848152602001908152602001600020541415905092915050565b6060612d8185612cf0565b612df3576040517f08c379a000000000000000000000000000000000000000000000000000000000815260040180806020018281038252601d8152602001807f416464726573733a2063616c6c20746f206e6f6e2d636f6e747261637400000081525060200191505060405180910390fd5b600060608673ffffffffffffffffffffffffffffffffffffffff1685876040518082805190602001908083835b60208310612e435780518252602082019150602081019050602083039250612e20565b6001836020036101000a03801982511681845116808217855250505050505090500191505060006040518083038185875af1925050503d8060008114612ea5576040519150601f19603f3d011682016040523d82523d6000602084013e612eaa565b606091505b50915091508115612ebf578092505050612f74565b600081511115612ed25780518082602001fd5b836040517f08c379a00000000000000000000000000000000000000000000000000000000081526004018080602001828103825283818151815260200191508051906020019080838360005b83811015612f39578082015181840152602081019050612f1e565b50505050905090810190601f168015612f665780820380516001836020036101000a031916815260200191505b509250505060405180910390fd5b949350505050565b6040518060600160405280600060ff168152602001600060ff168152602001600060ff1681525090565b828054600181600116156101000203166002900490600052602060002090601f016020900481019282601f10612fe757805160ff1916838001178555613015565b82800160010185558215613015579182015b82811115613014578251825591602001919060010190612ff9565b5b5090506130229190613026565b5090565b61304891905b8082111561304457600081600090555060010161302c565b5090565b9056fe456e756d657261626c655365743a20696e646578206f7574206f6620626f756e64734552433732313a207472616e7366657220746f206e6f6e20455243373231526563656976657220696d706c656d656e7465724552433732313a207472616e7366657220746f20746865207a65726f20616464726573734552433732313a206f70657261746f7220717565727920666f72206e6f6e6578697374656e7420746f6b656e4552433732313a20617070726f76652063616c6c6572206973206e6f74206f776e6572206e6f7220617070726f76656420666f7220616c6c4552433732313a2062616c616e636520717565727920666f7220746865207a65726f20616464726573734552433732313a206f776e657220717565727920666f72206e6f6e6578697374656e7420746f6b656e456e756d657261626c654d61703a20696e646578206f7574206f6620626f756e64734552433732313a20617070726f76656420717565727920666f72206e6f6e6578697374656e7420746f6b656e4552433732314d657461646174613a2055524920736574206f66206e6f6e6578697374656e7420746f6b656e4552433732313a207472616e73666572206f6620746f6b656e2074686174206973206e6f74206f776e4552433732314d657461646174613a2055524920717565727920666f72206e6f6e6578697374656e7420746f6b656e4552433732313a20617070726f76616c20746f2063757272656e74206f776e65724552433732313a207472616e736665722063616c6c6572206973206e6f74206f776e6572206e6f7220617070726f766564a2646970667358221220cefdeab682500714a092ddd0b17c2a2f32e35b532776bd3780fb30460757826164736f6c63430006020033",
  "source": "pragma solidity ^0.6.0;\r\n\r\nimport \"@openzeppelin/contracts/token/ERC721/ERC721.sol\";\r\nimport \"@openzeppelin/contracts/utils/Counters.sol\";\r\n\r\ncontract Skull is ERC721 {\r\n    using Counters for Counters.Counter;\r\n    Counters.Counter private _tokenIds;\r\n\r\n    address public owner;\r\n    Color public color;\r\n    string public message;\r\n\r\n    struct Color {\r\n        uint8 r;\r\n        uint8 g;\r\n        uint8 b;\r\n    }\r\n\r\n    mapping(uint256 => Color) public claimedColors;\r\n\r\n    event ColorChange(address indexed _changer, uint8 _r, uint8 _g, uint8 _b);\r\n    event MessageChange(address indexed _changer, string _message);\r\n\r\n    constructor() public ERC721(\"SkullToken\", \"SKL\") {\r\n        owner = msg.sender;\r\n        color = Color(255, 0, 0);\r\n        message = \"henlo\";\r\n    }\r\n\r\n    modifier restricted() {\r\n        if (msg.sender == owner) _;\r\n    }\r\n\r\n    function setColor(\r\n        uint8 _r,\r\n        uint8 _g,\r\n        uint8 _b,\r\n        address skullChanger,\r\n        string memory tokenURI\r\n    ) public {\r\n        for (uint256 i = 1; i < _tokenIds.current() + 1; i++) {\r\n            uint8 r = claimedColors[i].r;\r\n            uint8 g = claimedColors[i].g;\r\n            uint8 b = claimedColors[i].b;\r\n            require(_r != r && _g != g && _b != b, \"Color is used\");\r\n        }\r\n        Color memory _color = Color(_r, _g, _b);\r\n        color = _color;\r\n        _tokenIds.increment();\r\n        uint256 newSkullId = _tokenIds.current();\r\n        _mint(skullChanger, newSkullId);\r\n        _setTokenURI(newSkullId, tokenURI);\r\n\r\n        emit ColorChange(msg.sender, _r, _g, _b);\r\n    }\r\n\r\n    function setMessage(string memory _message) public {\r\n        message = _message;\r\n        emit MessageChange(msg.sender, _message);\r\n    }\r\n}\r\n",
  "sourcePath": "C:\\Users\\ariel\\skull-token\\contracts\\Skull.sol",
  "compiler": {
    "name": "solc",
    "version": "0.6.2+commit.bacdbe57.Emscripten.clang"
  },
  "schemaVersion": "3.2.0",
  "updatedAt": "2020-10-22T01:15:14.108Z",
  "networkType": "ethereum",
  "devdoc": {
    "methods": {
      "approve(address,uint256)": {
        "details": "See {IERC721-approve}."
      },
      "balanceOf(address)": {
        "details": "See {IERC721-balanceOf}."
      },
      "baseURI()": {
        "details": "Returns the base URI set via {_setBaseURI}. This will be automatically added as a prefix in {tokenURI} to each token's URI, or to the token ID if no specific URI is set for that token ID."
      },
      "getApproved(uint256)": {
        "details": "See {IERC721-getApproved}."
      },
      "isApprovedForAll(address,address)": {
        "details": "See {IERC721-isApprovedForAll}."
      },
      "name()": {
        "details": "See {IERC721Metadata-name}."
      },
      "ownerOf(uint256)": {
        "details": "See {IERC721-ownerOf}."
      },
      "safeTransferFrom(address,address,uint256)": {
        "details": "See {IERC721-safeTransferFrom}."
      },
      "safeTransferFrom(address,address,uint256,bytes)": {
        "details": "See {IERC721-safeTransferFrom}."
      },
      "setApprovalForAll(address,bool)": {
        "details": "See {IERC721-setApprovalForAll}."
      },
      "supportsInterface(bytes4)": {
        "details": "See {IERC165-supportsInterface}.     * Time complexity O(1), guaranteed to always use less than 30 000 gas."
      },
      "symbol()": {
        "details": "See {IERC721Metadata-symbol}."
      },
      "tokenByIndex(uint256)": {
        "details": "See {IERC721Enumerable-tokenByIndex}."
      },
      "tokenOfOwnerByIndex(address,uint256)": {
        "details": "See {IERC721Enumerable-tokenOfOwnerByIndex}."
      },
      "tokenURI(uint256)": {
        "details": "See {IERC721Metadata-tokenURI}."
      },
      "totalSupply()": {
        "details": "See {IERC721Enumerable-totalSupply}."
      },
      "transferFrom(address,address,uint256)": {
        "details": "See {IERC721-transferFrom}."
      }
    }
  },
  "userdoc": {
    "methods": {}
  }
}